:100000000C941B010C9443010C9443010C94430188
:100010000C9443010C9443010C9443010C94430150
:100020000C9443010C9443010C944B080C94190755
:100030000C9443010C9443010C9443010C94430130
:100040000C9443010C9443010C9443010C94430120
:100050000C9443010C9443010C9443010C943A0218
:100060000C9443010C9443010C9443010C94430100
:100070000C9443010C9443010C9443010C944301F0
:100080000C9443010C9443010C9443010C944301E0
:100090000C9443010C9443010C9443010C944301D0
:1000A0000C9443010C9443010C944301080B00028F
:1000B0000202010009040000010202000005240000
:1000C0001001052401010104240206052406000193
:1000D0000705810310004009040100020A00000026
:1000E000070502024000000705830240000000C12E
:1000F0008081C112010002020000404123418000C2
:1001000001010200011201000200000040412341F0
:100110008000010102000141726475696E6F204C1C
:100120004C430041726475696E6F2059756E00040E
:1001300003090400000000000000002A2B28000032
:1001400000000000000000000000000000000000AF
:100150000000002C9EB4A0A1A2A434A6A7A5AE3690
:100160002D3738271E1F20212223242526B333B6FE
:100170002EB7B89F8485868788898A8B8C8D8E8FD1
:10018000909192939495969798999A9B9C9D2F31D4
:1001900030A3AD350405060708090A0B0C0D0E0F38
:1001A000101112131415161718191A1B1C1DAFB1B4
:1001B000B0B500090402000103000000092101019B
:1001C00000012265000705840340000105010902C2
:1001D000A1010901A10085010509190129031500E3
:1001E00025019503750181029501750581030501BE
:1001F0000930093109381581257F75089503810675
:10020000C0C005010906A1018502050719E029E71B
:100210001500250175019508810295017508810376
:1002200095067508150025650507190029658100E3
:10023000C000E803F60911241FBECFEFDAE0DEBFED
:10024000CDBF11E0A0E0B1E0EAEAF4E102C0059020
:100250000D92AE36B107D9F721E0AEE6B1E001C0AC
:100260001D92AE3DB207E1F712E0C6E3D2E004C052
:100270002297FE010E944F0AC233D107C9F70E949C
:1002800006040C94530A0C94000040E855E260E028
:1002900070E088E791E00C94E2036AE071E088E79F
:1002A00091E00E94570449E050E062E070E08EE681
:1002B00091E00E94CF014AE050E0BC0188E791E064
:1002C0000E94170560E171E088E791E00E94570401
:1002D00047E050E061E070E08EE691E00E94DF01CF
:1002E0004AE050E0BC0188E791E00E94170566E112
:1002F00071E088E791E00E94570444E050E063E039
:1003000070E08EE691E00E94E3014AE050E0BC011B
:1003100088E791E00E9417056CE171E088E791E0C1
:100320000E94570442E050E064E070E08EE691E005
:100330000E94D3014AE050E0BC0188E791E00E94AE
:10034000170562E271E088E791E00E94570441E0FE
:1003500050E063E070E08EE691E00E9408024AE01F
:1003600050E0BC0188E791E00E9417056DE371E061
:1003700088E791E00E94570465E070E08EE691E026
:100380000E94EB014AE050E0BC0188E791E00E9446
:10039000170568EE73E080E090E00C94A702CB01B3
:1003A000840F951F0895CB014115510529F0BA011D
:1003B0000E94030ACB01089580E090E00895CB01EC
:1003C000841B950B0895649FC001659F900D749FD9
:1003D000900D1124089577FD14C06115710599F0F1
:1003E00081E090E021E030E0A901489F9001499F21
:1003F000300D589F300D1124019668177907A4F726
:1004000005C080E001C081E090E00895C901089531
:10041000EF92FF920F931F93CF93DF938A01EB012B
:10042000C41BD50B1C161D06E4F48EE691E00E9459
:10043000EB017C01B8018EE691E00E94EB018C019A
:10044000BE018EE691E00E94EB01089FB001099F7A
:10045000700D189F700D1124C7010E94030ACB0173
:1004600002C080E090E0DF91CF911F910F91FF904B
:10047000EF9008951F920F920FB60F9211242F93B1
:100480003F938F939F93AF93BF938091700190910F
:100490007101A0917201B091730130916F0123E05D
:1004A000230F2D3720F40196A11DB11D05C026E8AC
:1004B000230F0296A11DB11D20936F01809370013F
:1004C00090937101A0937201B093730180917401B4
:1004D00090917501A0917601B09177010196A11DCF
:1004E000B11D8093740190937501A0937601B09330
:1004F0007701BF91AF919F918F913F912F910F9075
:100500000FBE0F901F9018953FB7F894809174011B
:1005100090917501A0917601B091770126B5A89BC5
:1005200005C02F3F19F00196A11DB11D3FBF6627E1
:10053000782F892F9A2F620F711D811D911D42E026
:10054000660F771F881F991F4A95D1F70895CF929C
:10055000DF92EF92FF92CF93DF936B017C010E94B9
:100560008402EB01C114D104E104F10489F00E947A
:10057000BF080E9484026C1B7D0B683E734090F3A1
:1005800081E0C81AD108E108F108C851DC4FEACF70
:10059000DF91CF91FF90EF90DF90CF900895789406
:1005A00084B5826084BD84B5816084BD85B5826078
:1005B00085BD85B5816085BDEEE6F0E08081816016
:1005C0008083E1E8F0E01082808182608083808116
:1005D00081608083E0E8F0E0808181608083E1E9F0
:1005E000F0E0808182608083808181608083E0E9A7
:1005F000F0E0808181608083E1ECF0E080818460C4
:100600008083808182608083808181608083E3EC4D
:10061000F0E0808181608083E0ECF0E080818260A6
:100620008083E2ECF0E0808181608083EAE7F0E0A3
:10063000808184608083808182608083808181600A
:1006400080838081806880830895CF93DF931F9299
:10065000CDB7DEB76983DC01ED91FC910280F381B7
:10066000E02D41E050E0BE016F5F7F4F09950F9094
:10067000DF91CF910895CF93DF93EC018C859D8519
:1006800097FF05C082E00E94EE059D878C878C85D0
:100690009D85DF91CF91089583E00C944108FC0182
:1006A0008485958597FD06C082E00E94960590E0BE
:1006B0000196089582E00E94960590E00895FC015D
:1006C0008485958597FD05C02FEF3FEF35872487FB
:1006D000089582E00C94EE05CF93DF93EC018091B6
:1006E0000701882331F083E00E941F0618161906BF
:1006F00034F081E090E09B838A8380E090E0DF919A
:10070000CF910895FC0120812E5F208342E450E0C8
:100710006CEA70E080E80C94BA06FC01818190815B
:10072000913A59F4813209F03CC047E050E060E072
:1007300071E080E00E94BA0643C0913291F58032A8
:1007400039F467E070E080E091E00E94EB0606C0BB
:10075000823209F035C082818093070180910001C7
:1007600090910101A0910201B0910301803B94405E
:10077000A105B105C1F48091070180FD14C087E790
:1007800097E790930108809300082BE088E190E0C0
:100790000FB6F894A895809360000FBE2093600078
:1007A0000FC080E0089588E10FB6F8948093600050
:1007B000109260000FBEA8951092010810920008D8
:1007C00081E008952FEF3FEFFC01358724870895DE
:1007D00010927B0110927A0188EE93E0A0E0B0E0E5
:1007E00080937C0190937D01A0937E01B0937F0163
:1007F00084E591E090937901809378018FEF9FEFEA
:100800009093850180938401089508950E94CF02FA
:100810000E94050488EC91E00E94A1080E94450115
:10082000C0E0D0E00E944D012097E1F30E9400005B
:10083000F9CFCF92DF92EF92FF920F931F93CF9356
:10084000DF936C017A01EB01E60EF71E00E010E089
:10085000CE15DF0561F06991D601ED91FC91019013
:10086000F081E02DC6010995080F191FF1CFC801CD
:10087000DF91CF911F910F91FF90EF90DF90CF907C
:1008800008956115710581F0DB010D900020E9F7F5
:10089000AD0141505109461B570BDC01ED91FC9114
:1008A0000280F381E02D099480E090E008950C949B
:1008B0004104DC01ED91FC910190F081E02D09945F
:1008C0000F931F93CF93DF93EC016DE00E945904C7
:1008D0008C016AE0CE010E945904800F911FDF91C4
:1008E000CF911F910F9108958F929F92AF92BF92D7
:1008F000CF92DF92EF92FF920F931F93CF93DF93EC
:10090000CDB7DEB7A1970FB6F894DEBF0FBECDBF4F
:100910007C01C42EE52FCB01D22E19A221E02D158A
:1009200010F02AE0D22E8E010F5D1F4F8D2C912CDE
:10093000A12CB12C6C2D7E2FA50194010E94170AC9
:100940008C2DD29E80191124015011098A3014F483
:10095000805D01C0895CF801808321153105410566
:10096000510521F0C22EE32FCA01E4CFB801C7011F
:100970000E944104A1960FB6F894DEBF0FBECDBF12
:10098000DF91CF911F910F91FF90EF90DF90CF906B
:10099000BF90AF909F908F900895CF92DF92EF928B
:1009A000FF920F931F93CF93DF93EC016A017B01BA
:1009B0002115310579F4E881F9810190F081E02D6C
:1009C000642FDF91CF911F910F91FF90EF90DF90F7
:1009D000CF9009942A303105E9F477FF1AC06DE20F
:1009E0000E9459048C0144275527BA014C195D090E
:1009F0006E097F092AE0CE010E947404800F911FC6
:100A0000DF91CF911F910F91FF90EF90DF90CF90EA
:100A100008952AE0B701A601CE01DF91CF911F9181
:100A20000F91FF90EF90DF90CF900C9474040F9390
:100A30001F93CF93DF93EC019A01AB01662757FD1B
:100A40006095762F0E94CD048C01CE010E94600437
:100A5000800F911FDF91CF911F910F9108954091C9
:100A6000CC015091CD012091CA013091CB014217A8
:100A70005307B4F49091E8009570E1F39091E80089
:100A800092FD19C08093F1008091CC019091CD012D
:100A900001968F739927892B19F48EEF8093E800C4
:100AA0008091CC019091CD0101969093CD018093DE
:100AB000CC0181E0089580E00895FF920F931F9389
:100AC000CF93DF938C0188E10E942F0583E00E9481
:100AD0002F05C0E0D0E0F801EC0FFD1F84910E94CB
:100AE0002F05F82E80E00E942F058F2121F02196FE
:100AF000CB30D10581F7DF91CF911F910F91FF90FE
:100B00000895615030F02091F100FC01208301969E
:100B1000F8CF289884E68093CF0108952FB7FC0181
:100B20002083F89467706093E9000895CF93DF9372
:100B30001F92CDB7DEB7682FCE0101960E948E05B9
:100B40008091F20099819FBF0F90DF91CF9108951E
:100B5000FF920F931F93CF93DF9300D0CDB7DEB7F3
:100B6000F62E8A019091CE01992311F057FF03C010
:100B70008FEF9FEF2BC0682FCE0101967A830E94E2
:100B80008E058091F20090E0A8017A81801791078C
:100B90000CF4AC01EF2DF72FF40E84E6FE1639F0BD
:100BA00028988093CF019091F1009193F7CF411550
:100BB000510521F08091F200882321F089818FBFB7
:100BC000CA0104C08BE68093E800F8CF0F900F9025
:100BD000DF91CF911F910F91FF900895CF93DF93F5
:100BE0001F92CDB7DEB741E050E0BE016F5F7F4F8F
:100BF0000E94A805019719F4898190E002C08FEF47
:100C00009FEF0F90DF91CF910895CF93DF931F92C5
:100C1000CDB7DEB7682FCE0101960E948E05909168
:100C2000E800892F807295FF04C09091F20080E463
:100C3000891B99819FBF0F90DF91CF9108956F928B
:100C40007F928F929F92AF92BF92CF92DF92EF925C
:100C5000FF920F931F93CF93DF931F92CDB7DEB711
:100C6000782E7B01C42EB52E8091CE01882369F0A9
:100C7000042F152F8AEFD82E872D8072982E9AE395
:100C8000A92E872D8074882E11C08FEF9FEF57C03B
:100C9000872D0E940506682E81110CC0DA94A9F3F5
:100CA00061E070E080E090E00E94A702011511056C
:100CB00079F73BC0282F30E0021713070CF4602EA1
:100CC000672DCE0101960E948E058091E80085FF78
:100CD00029C0262D30E0021B130B992039F06A94AD
:100CE0008FEF6816B1F01092F100F9CFF701862D61
:100CF00077FE07C0815058F094919093F10031969F
:100D0000F9CF815020F091919093F100FACFE20E4B
:100D1000F31E8091E80085FF0FC00115110511F445
:100D200081100AC089818FBFC1CF5D9884E680930E
:100D3000D0018C2D9B2D03C0A092E800F3CF0F9023
:100D4000DF91CF911F910F91FF90EF90DF90CF90A7
:100D5000BF90AF909F908F907F906F90089510926A
:100D6000E9001092CD011092CC019093CB018093B9
:100D7000CA010895CF92DF92FF920F931F93CF93F2
:100D8000DF9300D0CDB7DEB7F82E8A016B010115D5
:100D90001105B1F0F601F7FE02C0849101C0808117
:100DA00049835A830E942F0501501109FFEFCF1A82
:100DB000DF0A49815A818111EACF8FEF9FEF01C08D
:100DC000CA010F900F90DF91CF911F910F91FF906B
:100DD000DF90CF9008951F93CF93DF931F92CDB7ED
:100DE000DEB7162F2091E80022FFFCCF612F798318
:100DF0000E9481058BEF8093E800812F7981972FE6
:100E00000F90DF91CF911F910895CF93DF931F92A1
:100E1000CDB7DEB71982CE0101960E948203CE01C2
:100E200001960E94DE08898190E00F90DF91CF91BA
:100E300008951F920F920FB60F921124EF92FF9216
:100E40000F931F932F933F934F935F936F937F93D2
:100E50008F939F93AF93BF93EF93FF93CF93DF93C2
:100E6000CDB7DEB76297DEBFCDBF1092E9008091AB
:100E7000E80083FFE9C068E0CE010A960E94810580
:100E800082EF8093E8009A8597FF05C08091E80083
:100E900080FFFCCF03C08EEF8093E800892F80761F
:100EA00009F0B7C08B85811105C01092F100109236
:100EB000F100C3C0282F2D7F213009F4BEC085303A
:100EC00049F48091E80080FFFCCF8C858068809396
:100ED000E300B3C0863009F074C02D85E888F98836
:100EE000223071F580E090E02A8B0E94AF060E94CC
:100EF000050799E08E010F5F1F4FF801392F1192FE
:100F00003A95E9F799832A892A8391E09E8390E8AC
:100F100098879AEF99872091CC013091CD01275F76
:100F20003F4F3C832B838D83C7010E94AF0649E06E
:100F300050E0B80180E00E94BA060E9405077DC01B
:100F4000C7012A8B0E94AF062A89223241F482E22D
:100F500090E00E94E908892B09F06FC072C021302F
:100F600069F488899989089711F42093C9018091BF
:100F7000C901811116C065E071E018C0233009F085
:100F800060C08C85882381F0823019F483E291E07F
:100F900005C0813009F055C087E191E00E945D05F0
:100FA0004AC063EF70E002C06FE271E06115710545
:100FB00009F447C0FB01449150E080E80E94BA0662
:100FC0003CC0873009F43DC0883021F481E0809333
:100FD000F10033C0893089F5937099F5EFEEF0E0B8
:100FE00081E021E096E38093E9002093EB003491C7
:100FF0003093EC009093ED008F5F3196853099F738
:101000008EE78093EA001092EA008C858093CE01EF
:1010100014C0888999890E94AF068E85811105C008
:10102000CE010A960E948D0306C0823051F4CE0193
:101030000A960E941109882321F08EEF8093E80020
:1010400003C081E28093EB0062960FB6F894DEBF96
:101050000FBECDBFDF91CF91FF91EF91BF91AF91C7
:101060009F918F917F916F915F914F913F912F91C0
:101070001F910F91FF90EF900F900FBE0F901F9058
:1010800018958093E9008091F200882319F08AE393
:101090008093E80008951F920F920FB60F921124CB
:1010A0002F933F934F935F936F937F938F939F9370
:1010B000AF93BF93EF93FF938091E1001092E10013
:1010C00083FF0FC01092E90091E09093EB00109223
:1010D000EC0092E39093ED001092CE0198E0909393
:1010E000F00082FF1DC083E00E9441088091D00182
:1010F000882339F08091D00181508093D0018823DA
:1011000069F08091CF01882359F08091CF018150FF
:101110008093CF01811104C0289A02C05D9AF1CF5B
:10112000FF91EF91BF91AF919F918F917F916F91BF
:101130005F914F913F912F910F900FBE0F901F9095
:1011400018951092CE0181E08093D70080EA8093B9
:10115000D80082E189BD09B400FEFDCF61E070E0F6
:1011600080E090E00E94A70280E98093D8008CE0A4
:101170008093E2001092E000559A209A0895089515
:10118000FF920F931F93CF93DF93EC01F62EE8812C
:10119000F9810480F581E02D09958C01E881F981C0
:1011A0000680F781E02D6F2DCE010995C8019927A2
:1011B000DF91CF911F910F91FF900895FC01208145
:1011C0002F5F208349E150E063EB71E080E80C94ED
:1011D000BA0645E650E06CEC71E080E80C94BA0683
:1011E000EF92FF920F931F93CF93DF931F92CDB790
:1011F000DEB789838B017A0141E050E0BE016F5F69
:101200007F4F84E00E941F06A701B80184E40E947A
:101210001F060F90DF91CF911F910F91FF90EF90DC
:101220000895FC0191818081813A31F481E091300F
:1012300091F0933089F411C0813271F49B3021F424
:1012400082818093090105C09A3031F482818093B4
:10125000080181E00895089580E0089548E050E095
:1012600082E00C94F008CF93DF93DC01683818F02B
:10127000E8E7E60F25C0E62FF0E067FF11C0E05871
:10128000F10981E090E001C0880FEA95EAF7149631
:101290009C911497982B14969C931497E0E010C09F
:1012A000ED5CFE4FE491EE2309F440C0E7FF08C077
:1012B00014968C911497826014968C931497EF7700
:1012C00016968C9116978E1741F117968C91179759
:1012D0008E1719F118968C9118978E17F1F01996B0
:1012E0008C9119978E17C9F01A968C911A978E17B0
:1012F000A1F01B968C911B978E1779F080E090E0FF
:10130000ED01C80FD91F2E81211102C0EE8305C047
:10131000019686309105A1F709C0BD016C5F7F4F32
:10132000CD010E942E0981E090E008C081E090E0AC
:1013300013969C938E93129780E090E0DF91CF916B
:101340000895683818F0E8E7E60F25C0E62FF0E0CA
:1013500067FF12C0E058F10921E030E001C0220F20
:10136000EA95EAF72095DC0114963C911497322314
:1013700014963C93E0E00FC0ED5CFE4FE491EE2349
:1013800029F1E7FF08C0DC0114962C9114972D7FFA
:1013900014962C93EF7720E030E0EE2351F0DC013F
:1013A000A20FB31F16964C9116974E1302C01696B5
:1013B0001C922F5F3F4F2630310579F7BC016C5FDF
:1013C0007F4F0E942E0981E090E0089580E090E038
:1013D0000895FC01168217821086118612861386E4
:1013E0001482BC016C5F7F4F0C942E091092DD01BA
:1013F0001092D4011092D30184E691E09093D2012F
:101400008093D101089597FB072E16F4009407D01E
:1014100077FD09D00E94390A07FC05D03EF490956B
:1014200081959F4F0895709561957F4F0895A1E232
:101430001A2EAA1BBB1BFD010DC0AA1FBB1FEE1F4E
:10144000FF1FA217B307E407F50720F0A21BB30B99
:10145000E40BF50B661F771F881F991F1A9469F715
:1014600060957095809590959B01AC01BD01CF0171
:101470000895AA1BBB1B51E107C0AA1FBB1FA617DB
:10148000B70710F0A61BB70B881F991F5A95A9F72D
:1014900080959095BC01CD010895EE0FFF1F05903A
:0A14A000F491E02D0994F894FFCFB9
:1014AA0000E10000000000000101322B393D20005C
:1014BA00312D373D2000332A343D2000342F323D70
:1014CA00200042696E6F6D69616C6B6F6566666953
:1014DA007A69656E7428332C3129203D0046616B88
:1014EA00756C7461657420766F6E203529203D0015
:1014FA000000000025036C034F035F033B034C030A
:0E150A0000000000C00819043309A109E90916
:00000001FF
